:020000040800F2
:1000000038070020CD010008D5010008D7010008FD
:10001000D9010008DB010008DD0100080000000034
:10002000000000000000000000000000DF010008E8
:10003000E101000800000000E3010008E5010008FC
:10004000E7010008E7010008E7010008E7010008F0
:10005000E7010008E7010008E7010008E7010008E0
:10006000E7010008E7010008E7010008E7010008D0
:10007000E7010008E7010008E7010008E7010008C0
:10008000E7010008E7010008E7010008E7010008B0
:10009000E7010008E7010008E7010008E7010008A0
:1000A000E7010008E7010008E7010008E701000890
:1000B000E7010008E7010008E7010008E701000880
:1000C000E7010008E7010008E7010008E701000870
:1000D000E701000809050008E7010008E70100083A
:1000E000E7010008E7010008E7010008E701000850
:1000F000E7010008E7010008E7010008E701000840
:10010000E7010008E7010008E7010008E70100082F
:10011000E7010008E7010008E7010008E70100081F
:10012000E7010008E7010008E7010008E70100080F
:1001300000F002F800F03AF80AA090E8000C8244BF
:100140008344AAF10107DA4501D100F02FF8AFF29C
:10015000090EBAE80F0013F0010F18BFFB1A43F0A5
:1001600001031847E804000008050000103A24BF06
:1001700078C878C1FAD8520724BF30C830C144BF0C
:1001800004680C607047000000230024002500264E
:10019000103A28BF78C1FBD8520728BF30C148BFEA
:1001A0000B6070471FB51FBD10B510BD00F033F8D0
:1001B0001146FFF7F7FF00F02BFA00F051F803B4F7
:1001C000FFF7F2FF03BC00F0E1F9000009488047A7
:1001D00009480047FEE7FEE7FEE7FEE7FEE7FEE729
:1001E000FEE7FEE7FEE7FEE704480549054A064B41
:1001F00070470000A9040008310100083801002000
:10020000380700203803002038030020704770476B
:10021000704770477047754600F02CF8AE460500F1
:100220006946534620F00700854618B020B5FFF711
:10023000DBFFBDE820404FF000064FF000074FF015
:1002400000084FF0000B21F00701AC46ACE8C009F4
:10025000ACE8C009ACE8C009ACE8C0098D467047FD
:1002600010B50446AFF300802046BDE81040FFF70C
:10027000A6BF000000487047D40000200B488069EA
:1002800040F01000094988610948406820F4700076
:10029000074948600846406840F4401048600846F6
:1002A000C06840F40050C860704700000010024071
:1002B0000010014000B5002015490861C8601420F5
:1002C000486100208861C8610846006840F001006C
:1002D0000860084640680F4908400D4948600846D4
:1002E00000680D4908400A4908600846006820F483
:1002F000802008600846406820F4FE004860002026
:10030000886000214FF0006000F008F800BD000098
:10031000001002400000FFF8FFFFF6FE024A0A400C
:100320000243024B1A60704780FFFF1F08ED00E098
:1003300010B500F001F810BD0CB500200190009040
:100340003348006840F480303149086000BF3048CD
:10035000006800F4003000900198401C0190009863
:1003600018B90198B0F5A06FF1D12948006800F4E0
:10037000003010B10120009001E0002000900098B2
:10038000012843D12348006840F01000214908604B
:100390000846006820F0030008600846006840F046
:1003A000020008601A4840681949486008464068D9
:1003B00048600846406840F48060486008464068ED
:1003C00020F47C1048600846406840F4E81048601B
:1003D0000846006840F08070086000BF0C48006864
:1003E00000F000700028F9D00948406820F00300B0
:1003F000074948600846406840F00200486000BF76
:100400000348406800F00C000828F9D10CBD00003A
:10041000001002400020024030B504460025FFF7DE
:1004200049FF1F48006840F480301D49086000BF44
:100430001B480068400C0028FAD04FF4806018492F
:100440004860A01EC4B20846406840EA8440486044
:100450000846406840F4803048601248006840F028
:100460003200104908600E48006840F080700C4966
:10047000086000BF0A480068400E0028FAD008480B
:10048000406840F002000649486005E004484068C2
:10049000C0F3870505F00305022DF7D130BD00003C
:1004A000001002400020024010B51348006840F0E0
:1004B00001001149086008464068104908400E498B
:1004C0004860084600680E4908400B490860084625
:1004D000006820F4802008600846406820F4FE0090
:1004E00048604FF41F008860FFF722FF4FF0006064
:1004F0000449086010BD0000001002400000FFF831
:10050000FFFFF6FE08ED00E01D49098801F020011B
:1005100011B31B49091D0988C8B21A49098801F499
:100520000041C9B91749098801F4804161B10A281D
:1005300003D00021134A118020E01249098841F4B8
:100540000041104A118019E00D2806D10D49098893
:1005500041F480410B4A118010E00A490988C1F337
:100560000D01094A505407490988491C054A118060
:1005700011460988C72901DD00211180704700005C
:1005800000380140080000200C000020014600BF98
:10059000704700004FF0E021096921F004014FF09D
:1005A000E0221161C21700EB5272C2F3C702074B7F
:1005B0001A701946097801EB4102C2EBC1114FF6DE
:1005C000FF7202EAC101024A118070470000002058
:1005D0000200002001460D4A12884A434FF0E023F2
:1005E0005A6100229A6101221A6100BF4FF0E02295
:1005F000106900F001021AB100F48032002AF5D02F
:1006000000224FF0E0231A619A6170470200002037
:100610000920FFF701FF4820FFF7BCFFFFF72EFE80
:100620000EE000200749086040F6B830FFF7D2FF1F
:1006300001200549C1F8B40140F6B830FFF7CAFF00
:10064000EFE70000B4012242000022426C060008DD
:10065000000000200C0000006C0100087806000873
:100660000C0000202C07000088010008000000009A
:08067000000000000000000082
:0400000508000131BD
:00000001FF
